:020000040000FA
:020000001028C6
:08000800F000030EF10083017A
:0A0010000A08F2008A110A12662B9A
:100020008A110A1231208A110A1296208A110A12A4
:10003000DD208A110A128C218A110A12C9218A1123
:100040000A12E4218A110A12F3228A110A12572392
:100050008A110A12E8218A110A12F8228A110A1258
:100060002828831603133030850031308600003095
:100070008700003088000430890006309F0083121A
:100080000313850100308600FF3087008801890155
:100090000800C2000508F0394204850089140130C7
:1000A000C000C00B512889100130C000C00B562879
:1000B0000800C5000910450E0F39492045080F39C1
:1000C00049203C30C000C00B63280800C50009145B
:1000D000450E0F39492045080F3949203C30C000F2
:1000E000C00B70280800013059200230C100FA30DE
:1000F000C000C00B7928FA30C000C00B7D28FA3050
:10010000C000C00B8128FA30C000C00B8528C10B8D
:10011000772808008030C500C30803199128C03033
:10012000C5004408C5074508592008001430C1001F
:10013000FA30C000C00B9A28FA30C000C00B9E28CD
:10014000FA30C000C00BA228FA30C000C00BA628AD
:10015000C10B98280910033049200530C100FA303E
:10016000C000C00BB128FA30C000C00BB528FA306F
:10017000C000C00BB928FA30C000C00BBD28C10BAD
:10018000AF28033049209630C000C00BC52803308B
:1001900049209630C000C00BCB28023049203230B5
:1001A000C000C00BD12828305920083059207320B6
:1001B000063059200C3059200800C601C701C8017B
:1001C000C901CA01CB01CC01CD01CE01FF308700AE
:1001D0000800CF00D20103140A30CF02D20A03185C
:1001E000ED28CF07D2030800D2005208003A0319C5
:1001F0001A295208013A03191B295208023A031915
:100200001C295208033A03191D295208043A0319FC
:100210001E295208053A03191F295208063A0319E4
:1002200020295208073A031921295208083A0319CC
:10023000222923293F3406345B344F3466346D342D
:100240007D3407347F346F345008E9205208F4209D
:10025000C6004F08F4208038C7005108E920520832
:10026000F420C8004F08F420C90008005008E92015
:100270005208F420CA004F08F4208038CB005108FF
:10028000E9205208F420CC004F08F420CD000800EB
:10029000FF3087004E08003A031967294E08013ADB
:1002A00003196B294E08023A03196F294E08033AC5
:1002B000031973294E08043A031977294E08053AA1
:1002C00003197B294E08063A03197F29832946081A
:1002D0008800071086294708880087108629480863
:1002E00088000711862949088800871186294A084D
:1002F0008800071286294B088800871286294C0837
:100300008800071386294D0888008713CE0A083015
:100310004E020319CE010800E001E101E201E30110
:10032000E401E501E601E701E80108008312031397
:10033000061C9D29E001E101A829E108031DA82967
:10034000E00A14306002031CA8290130E100E20039
:10035000061EAD29E301E401B829E408031DB8290C
:10036000E30A14306302031CB8290130E400E500FD
:10037000861EBD29E601E7010800E708031D080005
:10038000E60A14306602031C08000130E700E800AA
:100390000800A530E9000800831203130108E906EC
:1003A000031D0800A530E90008000310690C031CB8
:1003B000DA29B43AE900EA003D306A02031CE22976
:1003C000EA00DC296A0808000030A700A60108003E
:1003D00083120313D40803190800D40396212708B5
:1003E000003A0319FD292708023A0319162A27089B
:1003F000033A03192F2AE20108006208031D012AAB
:100400000800E201CC21D521A000A801A901AA0180
:10041000AC01AD01E501E8010030AB00AE01831293
:100420000313861406150230A7000800E201E50157
:10043000E801AB0A0319AE0A03302E02031C0800C0
:10044000031D262AE8302B02031C08008312031325
:1004500086100611E501E8010330A7000800E2015B
:10046000AA0A0A302A02031C612AAA01A90A6430D6
:100470002902031C3D2AA901A80A643028083C303F
:100480002802031C442A802A2D18502A6508031DBF
:100490004A2A502AE5012808A1002908A2002D14A3
:1004A000AD185C2A6808031D562A5C2AE801280852
:1004B000A3002908A400AD142D080339033A031939
:1004C0007C2A2D18692A2808D0002908D100242167
:1004D0006E2A2108D0002208D1002421AD18762AE6
:1004E0002808D0002908D100362108002308D000B0
:1004F0002408D100362108000430A700A1220800FA
:100500002D18862A3C30D000D1012421AD188C2A28
:100510003C30D000D10136212D080339033A0319AC
:100520007C2A2D18972AAD189A2AA5019C2A0130F9
:10053000A5009C2A0230A5000130A6000530A700C6
:100540000800200821020318AD2A21082002E02219
:100550002208AF02031CAC03B22AE0222208AF0734
:100560000318AC0A2F08AD002C08AE0020082302A7
:100570000318C22A23082002E0222408AF02031C29
:10058000AC03C72AE0222408AF070318AC0A2C08E2
:100590002E02031DD22A2F082D020319DA2A03186E
:1005A000D72AD42A0318D72A0130A500DB2A023023
:1005B000A500DB2AA5010130A6000530A700080030
:1005C000AB00AF01AC01AB08031908006430AF0702
:1005D0000318AC0AAB0BE62A0800A601E2010030C2
:1005E000A700AD010800B001B101B2012823080045
:1005F000B2080319012B2708003A03190800F32257
:100600000800A60803190800A6012508013A0319E5
:100610000E2B2508023A0319142B192BB00A0530AA
:10062000300203191B2B192BB10A053031020319B3
:100630001F2B2823222B0130B2003F23222B013015
:10064000B2004623ED220800C301C4018A2008003D
:100650007320242350306620313066203A306620E3
:100660003008303E66202030662050306620323020
:1006700066203A3066203108303E6620080073203C
:10068000242350306620313066204C2B73202423E5
:100690005030662032306620203066205730662089
:1006A000493066204E30662053306620080083169D
:1006B000031381308100831203130B118B100B1075
:1006C000D301D4010608B8308B0008000B1D732B32
:1006D0008A110A1248218A110A125408FF3A031992
:1006E000722BD40A0B118B1C772B53148B100B1C01
:1006F0007F2B06080B10061ED314861E5315720896
:0C0700008A00710E8300F00E700E0900DC
:02400E00713F00
:00000001FF
